{
  "contractName": "SimpleStorage",
  "abi": [
    {
      "constant": false,
      "inputs": [
        {
          "name": "x",
          "type": "string"
        }
      ],
      "name": "set",
      "outputs": [],
      "payable": false,
      "stateMutability": "nonpayable",
      "type": "function"
    },
    {
      "constant": true,
      "inputs": [],
      "name": "get",
      "outputs": [
        {
          "name": "",
          "type": "string"
        }
      ],
      "payable": false,
      "stateMutability": "view",
      "type": "function"
    },
    {
      "constant": false,
      "inputs": [
        {
          "name": "ipfs",
          "type": "string"
        },
        {
          "name": "tosend",
          "type": "address"
        }
      ],
      "name": "sendHash",
      "outputs": [],
      "payable": false,
      "stateMutability": "nonpayable",
      "type": "function"
    },
    {
      "constant": true,
      "inputs": [
        {
          "name": "getter",
          "type": "address"
        }
      ],
      "name": "getHash",
      "outputs": [
        {
          "name": "",
          "type": "string"
        }
      ],
      "payable": false,
      "stateMutability": "view",
      "type": "function"
    }
  ],
  "bytecode": "0x608060405234801561001057600080fd5b5061056b806100206000396000f300608060405260043610610062576000357c0100000000000000000000000000000000000000000000000000000000900463ffffffff1680631da0b8fc146100675780634ed3885e146101235780636d4ce63c1461018c57806371c935831461021c575b600080fd5b34801561007357600080fd5b506100a8600480360381019080803573ffffffffffffffffffffffffffffffffffffffff1690602001909291905050506102a5565b6040518080602001828103825283818151815260200191508051906020019080838360005b838110156100e85780820151818401526020810190506100cd565b50505050905090810190601f1680156101155780820380516001836020036101000a031916815260200191505b509250505060405180910390f35b34801561012f57600080fd5b5061018a600480360381019080803590602001908201803590602001908080601f0160208091040260200160405190810160405280939291908181526020018383808284378201915050505050509192919290505050610386565b005b34801561019857600080fd5b506101a16103a0565b6040518080602001828103825283818151815260200191508051906020019080838360005b838110156101e15780820151818401526020810190506101c6565b50505050905090810190601f16801561020e5780820380516001836020036101000a031916815260200191505b509250505060405180910390f35b34801561022857600080fd5b506102a3600480360381019080803590602001908201803590602001908080601f0160208091040260200160405190810160405280939291908181526020018383808284378201915050505050509192919290803573ffffffffffffffffffffffffffffffffffffffff169060200190929190505050610442565b005b6060600260008373ffffffffffffffffffffffffffffffffffffffff1673ffffffffffffffffffffffffffffffffffffffff1681526020019081526020016000208054600181600116156101000203166002900480601f01602080910402602001604051908101604052809291908181526020018280546001816001161561010002031660029004801561037a5780601f1061034f5761010080835404028352916020019161037a565b820191906000526020600020905b81548152906001019060200180831161035d57829003601f168201915b50505050509050919050565b806000908051906020019061039c92919061049a565b5050565b606060008054600181600116156101000203166002900480601f0160208091040260200160405190810160405280929190818152602001828054600181600116156101000203166002900480156104385780601f1061040d57610100808354040283529160200191610438565b820191906000526020600020905b81548152906001019060200180831161041b57829003601f168201915b5050505050905090565b81600260008373ffffffffffffffffffffffffffffffffffffffff1673ffffffffffffffffffffffffffffffffffffffff168152602001908152602001600020908051906020019061049592919061049a565b505050565b828054600181600116156101000203166002900490600052602060002090601f016020900481019282601f106104db57805160ff1916838001178555610509565b82800160010185558215610509579182015b828111156105085782518255916020019190600101906104ed565b5b509050610516919061051a565b5090565b61053c91905b80821115610538576000816000905550600101610520565b5090565b905600a165627a7a7230582069ca3c4d1bf073136b4bf8cd6de12915159f3618ee9d94fbbb7f0f03c7b8cbe20029",
  "source": "pragma solidity 0.4.24;\n\ncontract SimpleStorage {\n\tstring ipfsHash;\n\taddress addr;\n \n  \tmapping (address => string) setHash;\n\n  \tfunction set(string x) public {\n    \tipfsHash = x;\n    }\n\n  function get() public view returns (string) {\n    return ipfsHash;\n  }\n\n  function sendHash(string ipfs,address tosend) public{\t  \n    setHash[tosend] = ipfs;\n  }\n\n  function getHash(address getter)public view returns (string){\n   // require(msg.sender == getter, \"Accessing incorrect Address\");\n\treturn (setHash[getter]);\n \n  }\n}\n",
  "sourcePath": "/home/shikhar/Downloads/ipfs_image_uploader/contracts/SimpleStorage.sol",
  "compiler": {
    "name": "solc",
    "version": "0.4.24+commit.e67f0147.Emscripten.clang"
  },
  "schemaVersion": "2.0.1",
  "updatedAt": "2018-11-04T11:08:48.650Z"
}